:1000000014C02EC02DC02CC02BC02AC029C028C0AF
:1000100027C026C025C024C023C022C041C020C0A4
:100020001FC01EC01DC01CC01BC011241FBECFE5B9
:10003000D2E0DEBFCDBF10E0A0E6B0E0E6ECF7E036
:1000400002C005900D92A237B107D9F710E0A2E7E0
:10005000B0E001C01D92A837B107E1F75CD0B2C390
:10006000CFCF83E389B910BC80B5866880BD539A31
:1000700008951F93182F8A3011F48DE0FADF5D9BED
:10008000FECF1CB980E090E01F9108953E9A86B1A2
:10009000886886B90895789486B1886486B9089589
:1000A0001F920F920FB60F9211242F933F934F93ED
:1000B0005F936F937F938F939F93AF93BF93EF93D0
:1000C000FF93CFDF84E690E09093750080937400F7
:1000D00024B185B19927982F8827820F911D9F936E
:1000E0008F9380E690E09F938F9326D00F900F9090
:1000F0000F900F90FF91EF91BF91AF919F918F91D2
:100100007F916F915F914F913F912F910F900FBE13
:100110000F901F901895E0E2FEE43E9A86B1886841
:1001200086B9CF010197F1F7789486B1886486B9D2
:10013000CF010197F1F7F1CFA2E0B0E0E1EAF0E002
:100140001AC3FE01379661917191FA83E983AF0179
:10015000809174009091750003D0E2E0229627C34D
:10016000A4E1B0E0E5EBF0E0F6C2CC24DD247601BA
:100170001C017C8B6B8B2A01FC0117821682838108
:1001800081FD03C08FEF9FEF75C2AA24BB245FC21D
:10019000A0FE45C28A8980538A30E8F4FA89F03398
:1001A00041F42D85222329F4A3FC03C080E091E0D3
:1001B0006FC08AE0ED85E802C0011124FA89F80FCA
:1001C000F053FD87F7FF02C02FE72D87A3FC39C24C
:1001D0003D853E8736C2C50188709070A3FE05C07C
:1001E000ED85EE2311F4F1E0FD872A89283624F508
:1001F00025360CF05BC0233509F47FC024358CF420
:100200002B32C1F12C3234F42032C1F1233209F007
:10021000FCC13CC03A893D32B1F13E3209F0F5C132
:100220003AC08A89833609F449C084360CF07EC00E
:10023000883509F0EAC11BC0EA89E03709F4A0C09B
:10024000E13744F4EC3669F1EF3671F0E93609F044
:10025000DCC16CC0FA89F53709F49AC0F83739F077
:10026000F33709F0D2C134C028E0298B91C030E1C6
:10027000398B8EC080E190E0A82AB92AE0E2F0E054
:10028000AE2ABF2ADEC120E830E00DC080E490E055
:10029000A82AB92AD6C1E8E0F0E0AE2ABF2A1D8616
:1002A000D0C124E030E0A22AB32ACBC14FE3C42E50
:1002B0003E8531503E8783E68A8B39C1F201C0808A
:1002C000FE85F150FE8722E030E0420E531E2FC122
:1002D000F201C080D180892B41F0FD856F2F7727F7
:1002E00067FD7095C601DDD117C0F60101900020B1
:1002F000E9F73197EC19E98B10C0F201C080D18089
:10030000892B41F0FD856F2F772767FD7095C6011A
:10031000BDD102C0C601B1D1898B22E030E0420ECE
:10032000531E3E858989381B3E8701C1A2FE08C045
:10033000F20180819181A281B38124E030E009C083
:10034000F20180819181AA2797FDA095BA2F22E022
:1003500030E0420E531E6C017D01B7FF0CC082E0FD
:1003600090E0A82AB92AF094E094D094C094C11CDB
:10037000D11CE11CF11CEFEBFFEFAE22BF2221C02C
:1003800020E430E0A22AB32A38E73A8B80E1898B57
:10039000A2FE08C0F20180819181A281B38124E094
:1003A00030E007C0F20180819181AA27BB2722E0BB
:1003B00030E0420E531E6C017D018FEC9FEFA822AE
:1003C000B92287017601FE013196F88BEF87F98912
:1003D0006F2E772488249924C801B701A4019301C2
:1003E00098D16A3024F02A89620F615201C0605DA1
:1003F000EF85F8896193F88BEF87C801B701A401F5
:10040000930187D179018A012115310541055105F3
:1004100019F7CC24DD247601CE010196CF84C81AC9
:10042000C50182739070892B19F0FE85F150FE870B
:10043000A6FE09C02989203111F482E001C081E0C3
:100440003E85381B3E8738E0832E912C8A209B20E6
:10045000A3FE1BC08D85282F332727FD30958C2DBB
:1004600099278217930754F0E7EFFFEFAE22BF22E0
:1004700028E0822E912C8A209B2007C0FD85FC1944
:10048000FD872E852F1B2E8703C03E853C193E8796
:10049000C50180789170892B61F48E8505C0B1010A
:1004A00080E290E009D1812F182F11501816BCF36B
:1004B0001E87A1FE04C0B1018DE290E00BC0A4FE36
:1004C00004C0B1018BE290E005C0A5FE04C0B101FB
:1004D00080E290E0F1D0A6FE0EC0B10180E390E092
:1004E000EBD08989803139F4B101EA898E2F9927BF
:1004F00087FD9095E1D0B0FE0CC08E8505C0B1019E
:1005000080E390E0D9D0812F182F11501816BCF33A
:100510001E87892861F02D8505C0B10180E390E038
:10052000CBD0212F122F11501216BCF31D8790E84B
:10053000692E712C6A207B20A7FC0CC08E8505C01B
:10054000B10180E290E0B8D0812F182F1150181619
:10055000BCF31E87FA89F33639F4B1018C2D992743
:1005600087FD9095A9D042C02A892337A9F4460176
:100570005601198908C0F50181915F01B1019927E0
:1005800087FD909599D01150B0F76401F989CF0E8D
:10059000D11C2FEF298B2AC03A89333519F00F85EA
:1005A00018891DC046018601B98807C0F8018491E9
:1005B000B101992781D00F5F1F4FBA94FFEFBF168B
:1005C000A9F764012989C20ED11CF98B0FC0F8016B
:1005D00082918F01B101992787FD90956DD0CE0151
:1005E00001960817190799F7188B0F876728A1F04C
:1005F0008E8505C0B10180E290E05ED0812F182F7A
:1006000011501816BCF31E8707C0B101FA898F2F4D
:10061000992787FD909550D0AA24BB2412C02A891F
:10062000253241F43AE0398B1E861D8681E0A82EE2
:10063000B12C07C0B101EA898E2F992787FD9095CB
:100640003BD02B893C892F5F3F4F3C8B2B8BF1019B
:10065000838183FF04C0EB89FC89F49103C0EB899B
:10066000FC89F081FA8B2A89222309F091CDF101CE
:1006700086819781E2E164968AC0FC0105900020A2
:10068000E9F7809590958E0F9F1F0895FC010590C6
:10069000615070400110D8F7809590958E0F9F1F84
:1006A0000895FC016150704001900110D8F78095C9
:1006B00090958E0F9F1F08950F931F93CF93DF93F5
:1006C0008C01EB018B81992781FF1BC082FF0DC03C
:1006D0002E813F818C819D812817390764F4E88140
:1006E000F9810193F983E88306C0E885F985802FB5
:1006F0000995892B31F48E819F8101969F838E838A
:1007000002C00FEF1FEFC801DF91CF911F910F9132
:100710000895A1E21A2EAA1BBB1BFD010DC0AA1F42
:10072000BB1FEE1FFF1FA217B307E407F50720F05A
:10073000A21BB30BE40BF50B661F771F881F991FD5
:100740001A9469F760957095809590959B01AC011E
:10075000BD01CF0108952F923F924F925F926F9209
:100760007F928F929F92AF92BF92CF92DF92EF9241
:10077000FF920F931F93CF93DF93CDB7DEB7CA1BC2
:10078000DB0B0FB6F894DEBF0FBECDBF09942A88ED
:10079000398848885F846E847D848C849B84AA8495
:1007A000B984C884DF80EE80FD800C811B81AA8122
:1007B000B981CE0FD11D0FB6F894DEBF0FBECDBFED
:0607C000ED010895FFCFDA
:1007C60025640A0000000002000000003900000055
:0207D600000021
:00000001FF
